{
  "_format": "hh-sol-artifact-1",
  "contractName": "NFT",
  "sourceName": "contracts/NFT.sol",
  "abi": [
    {
      "inputs": [
        {
          "internalType": "address",
          "name": "_tokenAddress",
          "type": "address"
        }
      ],
      "stateMutability": "nonpayable",
      "type": "constructor"
    },
    {
      "anonymous": false,
      "inputs": [
        {
          "indexed": true,
          "internalType": "address",
          "name": "owner",
          "type": "address"
        },
        {
          "indexed": true,
          "internalType": "address",
          "name": "approved",
          "type": "address"
        },
        {
          "indexed": true,
          "internalType": "uint256",
          "name": "tokenId",
          "type": "uint256"
        }
      ],
      "name": "Approval",
      "type": "event"
    },
    {
      "anonymous": false,
      "inputs": [
        {
          "indexed": true,
          "internalType": "address",
          "name": "owner",
          "type": "address"
        },
        {
          "indexed": true,
          "internalType": "address",
          "name": "operator",
          "type": "address"
        },
        {
          "indexed": false,
          "internalType": "bool",
          "name": "approved",
          "type": "bool"
        }
      ],
      "name": "ApprovalForAll",
      "type": "event"
    },
    {
      "anonymous": false,
      "inputs": [
        {
          "indexed": true,
          "internalType": "address",
          "name": "from",
          "type": "address"
        },
        {
          "indexed": true,
          "internalType": "address",
          "name": "to",
          "type": "address"
        },
        {
          "indexed": true,
          "internalType": "uint256",
          "name": "tokenId",
          "type": "uint256"
        }
      ],
      "name": "Transfer",
      "type": "event"
    },
    {
      "inputs": [],
      "name": "MAX_SUPPLY",
      "outputs": [
        {
          "internalType": "uint256",
          "name": "",
          "type": "uint256"
        }
      ],
      "stateMutability": "view",
      "type": "function"
    },
    {
      "inputs": [],
      "name": "MINT_PRICE",
      "outputs": [
        {
          "internalType": "uint256",
          "name": "",
          "type": "uint256"
        }
      ],
      "stateMutability": "view",
      "type": "function"
    },
    {
      "inputs": [
        {
          "internalType": "address",
          "name": "to",
          "type": "address"
        },
        {
          "internalType": "uint256",
          "name": "tokenId",
          "type": "uint256"
        }
      ],
      "name": "approve",
      "outputs": [],
      "stateMutability": "nonpayable",
      "type": "function"
    },
    {
      "inputs": [
        {
          "internalType": "address",
          "name": "owner",
          "type": "address"
        }
      ],
      "name": "balanceOf",
      "outputs": [
        {
          "internalType": "uint256",
          "name": "",
          "type": "uint256"
        }
      ],
      "stateMutability": "view",
      "type": "function"
    },
    {
      "inputs": [
        {
          "internalType": "uint256",
          "name": "tokenId",
          "type": "uint256"
        }
      ],
      "name": "getApproved",
      "outputs": [
        {
          "internalType": "address",
          "name": "",
          "type": "address"
        }
      ],
      "stateMutability": "view",
      "type": "function"
    },
    {
      "inputs": [
        {
          "internalType": "address",
          "name": "owner",
          "type": "address"
        },
        {
          "internalType": "address",
          "name": "operator",
          "type": "address"
        }
      ],
      "name": "isApprovedForAll",
      "outputs": [
        {
          "internalType": "bool",
          "name": "",
          "type": "bool"
        }
      ],
      "stateMutability": "view",
      "type": "function"
    },
    {
      "inputs": [
        {
          "internalType": "string",
          "name": "_tokenURI",
          "type": "string"
        }
      ],
      "name": "mintToken",
      "outputs": [],
      "stateMutability": "nonpayable",
      "type": "function"
    },
    {
      "inputs": [],
      "name": "name",
      "outputs": [
        {
          "internalType": "string",
          "name": "",
          "type": "string"
        }
      ],
      "stateMutability": "view",
      "type": "function"
    },
    {
      "inputs": [
        {
          "internalType": "uint256",
          "name": "tokenId",
          "type": "uint256"
        }
      ],
      "name": "ownerOf",
      "outputs": [
        {
          "internalType": "address",
          "name": "",
          "type": "address"
        }
      ],
      "stateMutability": "view",
      "type": "function"
    },
    {
      "inputs": [
        {
          "internalType": "address",
          "name": "from",
          "type": "address"
        },
        {
          "internalType": "address",
          "name": "to",
          "type": "address"
        },
        {
          "internalType": "uint256",
          "name": "tokenId",
          "type": "uint256"
        }
      ],
      "name": "safeTransferFrom",
      "outputs": [],
      "stateMutability": "nonpayable",
      "type": "function"
    },
    {
      "inputs": [
        {
          "internalType": "address",
          "name": "from",
          "type": "address"
        },
        {
          "internalType": "address",
          "name": "to",
          "type": "address"
        },
        {
          "internalType": "uint256",
          "name": "tokenId",
          "type": "uint256"
        },
        {
          "internalType": "bytes",
          "name": "data",
          "type": "bytes"
        }
      ],
      "name": "safeTransferFrom",
      "outputs": [],
      "stateMutability": "nonpayable",
      "type": "function"
    },
    {
      "inputs": [
        {
          "internalType": "address",
          "name": "operator",
          "type": "address"
        },
        {
          "internalType": "bool",
          "name": "approved",
          "type": "bool"
        }
      ],
      "name": "setApprovalForAll",
      "outputs": [],
      "stateMutability": "nonpayable",
      "type": "function"
    },
    {
      "inputs": [
        {
          "internalType": "bytes4",
          "name": "interfaceId",
          "type": "bytes4"
        }
      ],
      "name": "supportsInterface",
      "outputs": [
        {
          "internalType": "bool",
          "name": "",
          "type": "bool"
        }
      ],
      "stateMutability": "view",
      "type": "function"
    },
    {
      "inputs": [],
      "name": "symbol",
      "outputs": [
        {
          "internalType": "string",
          "name": "",
          "type": "string"
        }
      ],
      "stateMutability": "view",
      "type": "function"
    },
    {
      "inputs": [],
      "name": "token",
      "outputs": [
        {
          "internalType": "contract FungibleToken",
          "name": "",
          "type": "address"
        }
      ],
      "stateMutability": "view",
      "type": "function"
    },
    {
      "inputs": [],
      "name": "tokenIds",
      "outputs": [
        {
          "internalType": "uint256",
          "name": "",
          "type": "uint256"
        }
      ],
      "stateMutability": "view",
      "type": "function"
    },
    {
      "inputs": [
        {
          "internalType": "uint256",
          "name": "tokenId",
          "type": "uint256"
        }
      ],
      "name": "tokenURI",
      "outputs": [
        {
          "internalType": "string",
          "name": "",
          "type": "string"
        }
      ],
      "stateMutability": "view",
      "type": "function"
    },
    {
      "inputs": [
        {
          "internalType": "address",
          "name": "from",
          "type": "address"
        },
        {
          "internalType": "address",
          "name": "to",
          "type": "address"
        },
        {
          "internalType": "uint256",
          "name": "tokenId",
          "type": "uint256"
        }
      ],
      "name": "transferFrom",
      "outputs": [],
      "stateMutability": "nonpayable",
      "type": "function"
    }
  ],
  "bytecode": "0x608060405260016008553480156200001657600080fd5b506040516200348d3803806200348d83398181016040528101906200003c919062000180565b6040518060400160405280600b81526020017f4e6f6e66756e6769626c650000000000000000000000000000000000000000008152506040518060400160405280600381526020017f4e465400000000000000000000000000000000000000000000000000000000008152508160009081620000b991906200042c565b508060019081620000cb91906200042c565b50505080600760006101000a81548173ffffffffffffffffffffffffffffffffffffffff021916908373ffffffffffffffffffffffffffffffffffffffff1602179055505062000513565b600080fd5b600073ffffffffffffffffffffffffffffffffffffffff82169050919050565b600062000148826200011b565b9050919050565b6200015a816200013b565b81146200016657600080fd5b50565b6000815190506200017a816200014f565b92915050565b60006020828403121562000199576200019862000116565b5b6000620001a98482850162000169565b91505092915050565b600081519050919050565b7f4e487b7100000000000000000000000000000000000000000000000000000000600052604160045260246000fd5b7f4e487b7100000000000000000000000000000000000000000000000000000000600052602260045260246000fd5b600060028204905060018216806200023457607f821691505b6020821081036200024a5762000249620001ec565b5b50919050565b60008190508160005260206000209050919050565b60006020601f8301049050919050565b600082821b905092915050565b600060088302620002b47fffffffffffffffffffffffffffffffffffffffffffffffffffffffffffffffff8262000275565b620002c0868362000275565b95508019841693508086168417925050509392505050565b6000819050919050565b6000819050919050565b60006200030d620003076200030184620002d8565b620002e2565b620002d8565b9050919050565b6000819050919050565b6200032983620002ec565b62000341620003388262000314565b84845462000282565b825550505050565b600090565b6200035862000349565b620003658184846200031e565b505050565b5b818110156200038d57620003816000826200034e565b6001810190506200036b565b5050565b601f821115620003dc57620003a68162000250565b620003b18462000265565b81016020851015620003c1578190505b620003d9620003d08562000265565b8301826200036a565b50505b505050565b600082821c905092915050565b60006200040160001984600802620003e1565b1980831691505092915050565b60006200041c8383620003ee565b9150826002028217905092915050565b6200043782620001b2565b67ffffffffffffffff811115620004535762000452620001bd565b5b6200045f82546200021b565b6200046c82828562000391565b600060209050601f831160018114620004a457600084156200048f578287015190505b6200049b85826200040e565b8655506200050b565b601f198416620004b48662000250565b60005b82811015620004de57848901518255600182019150602085019450602081019050620004b7565b86831015620004fe5784890151620004fa601f891682620003ee565b8355505b6001600288020188555050505b505050505050565b612f6a80620005236000396000f3fe608060405234801561001057600080fd5b50600436106101165760003560e01c806370a08231116100a2578063b88d4fde11610071578063b88d4fde146102df578063c002d23d146102fb578063c87b56dd14610319578063e985e9c514610349578063fc0c546a1461037957610116565b806370a0823114610257578063714cff561461028757806395d89b41146102a5578063a22cb465146102c357610116565b806323b872dd116100e957806323b872dd146101b557806332cb6b0c146101d157806333eba49a146101ef57806342842e0e1461020b5780636352211e1461022757610116565b806301ffc9a71461011b57806306fdde031461014b578063081812fc14610169578063095ea7b314610199575b600080fd5b61013560048036038101906101309190611ad0565b610397565b6040516101429190611b18565b60405180910390f35b610153610479565b6040516101609190611bc3565b60405180910390f35b610183600480360381019061017e9190611c1b565b61050b565b6040516101909190611c89565b60405180910390f35b6101b360048036038101906101ae9190611cd0565b610551565b005b6101cf60048036038101906101ca9190611d10565b610668565b005b6101d96106c8565b6040516101e69190611d72565b60405180910390f35b61020960048036038101906102049190611ec2565b6106cd565b005b61022560048036038101906102209190611d10565b610979565b005b610241600480360381019061023c9190611c1b565b610999565b60405161024e9190611c89565b60405180910390f35b610271600480360381019061026c9190611f0b565b610a4a565b60405161027e9190611d72565b60405180910390f35b61028f610b01565b60405161029c9190611d72565b60405180910390f35b6102ad610b07565b6040516102ba9190611bc3565b60405180910390f35b6102dd60048036038101906102d89190611f64565b610b99565b005b6102f960048036038101906102f49190612045565b610baf565b005b610303610c11565b6040516103109190611d72565b60405180910390f35b610333600480360381019061032e9190611c1b565b610c1a565b6040516103409190611bc3565b60405180910390f35b610363600480360381019061035e91906120c8565b610d2c565b6040516103709190611b18565b60405180910390f35b610381610dc0565b60405161038e9190612167565b60405180910390f35b60007f80ac58cd000000000000000000000000000000000000000000000000000000007bffffffffffffffffffffffffffffffffffffffffffffffffffffffff1916827bffffffffffffffffffffffffffffffffffffffffffffffffffffffff1916148061046257507f5b5e139f000000000000000000000000000000000000000000000000000000007bffffffffffffffffffffffffffffffffffffffffffffffffffffffff1916827bffffffffffffffffffffffffffffffffffffffffffffffffffffffff1916145b80610472575061047182610de6565b5b9050919050565b606060008054610488906121b1565b80601f01602080910402602001604051908101604052809291908181526020018280546104b4906121b1565b80156105015780601f106104d657610100808354040283529160200191610501565b820191906000526020600020905b8154815290600101906020018083116104e457829003601f168201915b5050505050905090565b600061051682610e50565b6004600083815260200190815260200160002060009054906101000a900473ffffffffffffffffffffffffffffffffffffffff169050919050565b600061055c82610999565b90508073ffffffffffffffffffffffffffffffffffffffff168373ffffffffffffffffffffffffffffffffffffffff16036105cc576040517f08c379a00000000000000000000000000000000000000000000000000000000081526004016105c390612254565b60405180910390fd5b8073ffffffffffffffffffffffffffffffffffffffff166105eb610e9b565b73ffffffffffffffffffffffffffffffffffffffff16148061061a575061061981610614610e9b565b610d2c565b5b610659576040517f08c379a0000000000000000000000000000000000000000000000000000000008152600401610650906122e6565b60405180910390fd5b6106638383610ea3565b505050565b610679610673610e9b565b82610f5c565b6106b8576040517f08c379a00000000000000000000000000000000000000000000000000000000081526004016106af90612378565b60405180910390fd5b6106c3838383610ff1565b505050565b600381565b60036008541115610713576040517f08c379a000000000000000000000000000000000000000000000000000000000815260040161070a906123e4565b60405180910390fd5b64012a05f200600760009054906101000a900473ffffffffffffffffffffffffffffffffffffffff1673ffffffffffffffffffffffffffffffffffffffff166370a08231336040518263ffffffff1660e01b81526004016107749190611c89565b602060405180830381865afa158015610791573d6000803e3d6000fd5b505050506040513d601f19601f820116820180604052508101906107b59190612419565b10156107f6576040517f08c379a00000000000000000000000000000000000000000000000000000000081526004016107ed90612492565b60405180910390fd5b600760009054906101000a900473ffffffffffffffffffffffffffffffffffffffff1673ffffffffffffffffffffffffffffffffffffffff1663095ea7b33064012a05f2006040518363ffffffff1660e01b81526004016108589291906124b2565b6020604051808303816000875af1158015610877573d6000803e3d6000fd5b505050506040513d601f19601f8201168201806040525081019061089b91906124f0565b50600760009054906101000a900473ffffffffffffffffffffffffffffffffffffffff1673ffffffffffffffffffffffffffffffffffffffff166323b872dd333064012a05f2006040518463ffffffff1660e01b81526004016109009392919061251d565b6020604051808303816000875af115801561091f573d6000803e3d6000fd5b505050506040513d601f19601f8201168201806040525081019061094391906124f0565b5061095033600854611257565b61095c60085482611430565b60016008600082825461096f9190612583565b9250508190555050565b61099483838360405180602001604052806000815250610baf565b505050565b6000806002600084815260200190815260200160002060009054906101000a900473ffffffffffffffffffffffffffffffffffffffff169050600073ffffffffffffffffffffffffffffffffffffffff168173ffffffffffffffffffffffffffffffffffffffff1603610a41576040517f08c379a0000000000000000000000000000000000000000000000000000000008152600401610a3890612603565b60405180910390fd5b80915050919050565b60008073ffffffffffffffffffffffffffffffffffffffff168273ffffffffffffffffffffffffffffffffffffffff1603610aba576040517f08c379a0000000000000000000000000000000000000000000000000000000008152600401610ab190612695565b60405180910390fd5b600360008373ffffffffffffffffffffffffffffffffffffffff1673ffffffffffffffffffffffffffffffffffffffff168152602001908152602001600020549050919050565b60085481565b606060018054610b16906121b1565b80601f0160208091040260200160405190810160405280929190818152602001828054610b42906121b1565b8015610b8f5780601f10610b6457610100808354040283529160200191610b8f565b820191906000526020600020905b815481529060010190602001808311610b7257829003601f168201915b5050505050905090565b610bab610ba4610e9b565b838361149d565b5050565b610bc0610bba610e9b565b83610f5c565b610bff576040517f08c379a0000000000000000000000000000000000000000000000000000000008152600401610bf690612378565b60405180910390fd5b610c0b84848484611609565b50505050565b64012a05f20081565b6060610c2582610e50565b6000600660008481526020019081526020016000208054610c45906121b1565b80601f0160208091040260200160405190810160405280929190818152602001828054610c71906121b1565b8015610cbe5780601f10610c9357610100808354040283529160200191610cbe565b820191906000526020600020905b815481529060010190602001808311610ca157829003601f168201915b505050505090506000610ccf611665565b90506000815103610ce4578192505050610d27565b600082511115610d19578082604051602001610d019291906126f1565b60405160208183030381529060405292505050610d27565b610d228461167c565b925050505b919050565b6000600560008473ffffffffffffffffffffffffffffffffffffffff1673ffffffffffffffffffffffffffffffffffffffff16815260200190815260200160002060008373ffffffffffffffffffffffffffffffffffffffff1673ffffffffffffffffffffffffffffffffffffffff16815260200190815260200160002060009054906101000a900460ff16905092915050565b600760009054906101000a900473ffffffffffffffffffffffffffffffffffffffff1681565b60007f01ffc9a7000000000000000000000000000000000000000000000000000000007bffffffffffffffffffffffffffffffffffffffffffffffffffffffff1916827bffffffffffffffffffffffffffffffffffffffffffffffffffffffff1916149050919050565b610e59816116e4565b610e98576040517f08c379a0000000000000000000000000000000000000000000000000000000008152600401610e8f90612603565b60405180910390fd5b50565b600033905090565b816004600083815260200190815260200160002060006101000a81548173ffffffffffffffffffffffffffffffffffffffff021916908373ffffffffffffffffffffffffffffffffffffffff160217905550808273ffffffffffffffffffffffffffffffffffffffff16610f1683610999565b73ffffffffffffffffffffffffffffffffffffffff167f8c5be1e5ebec7d5bd14f71427d1e84f3dd0314c0f7b2291e5b200ac8c7c3b92560405160405180910390a45050565b600080610f6883610999565b90508073ffffffffffffffffffffffffffffffffffffffff168473ffffffffffffffffffffffffffffffffffffffff161480610faa5750610fa98185610d2c565b5b80610fe857508373ffffffffffffffffffffffffffffffffffffffff16610fd08461050b565b73ffffffffffffffffffffffffffffffffffffffff16145b91505092915050565b8273ffffffffffffffffffffffffffffffffffffffff1661101182610999565b73ffffffffffffffffffffffffffffffffffffffff1614611067576040517f08c379a000000000000000000000000000000000000000000000000000000000815260040161105e90612787565b60405180910390fd5b600073ffffffffffffffffffffffffffffffffffffffff168273ffffffffffffffffffffffffffffffffffffffff16036110d6576040517f08c379a00000000000000000000000000000000000000000000000000000000081526004016110cd90612819565b60405180910390fd5b6110e1838383611750565b6110ec600082610ea3565b6001600360008573ffffffffffffffffffffffffffffffffffffffff1673ffffffffffffffffffffffffffffffffffffffff168152602001908152602001600020600082825461113c9190612839565b925050819055506001600360008473ffffffffffffffffffffffffffffffffffffffff1673ffffffffffffffffffffffffffffffffffffffff16815260200190815260200160002060008282546111939190612583565b92505081905550816002600083815260200190815260200160002060006101000a81548173ffffffffffffffffffffffffffffffffffffffff021916908373ffffffffffffffffffffffffffffffffffffffff160217905550808273ffffffffffffffffffffffffffffffffffffffff168473ffffffffffffffffffffffffffffffffffffffff167fddf252ad1be2c89b69c2b068fc378daa952ba7f163c4a11628f55a4df523b3ef60405160405180910390a4611252838383611755565b505050565b600073ffffffffffffffffffffffffffffffffffffffff168273ffffffffffffffffffffffffffffffffffffffff16036112c6576040517f08c379a00000000000000000000000000000000000000000000000000000000081526004016112bd906128b9565b60405180910390fd5b6112cf816116e4565b1561130f576040517f08c379a000000000000000000000000000000000000000000000000000000000815260040161130690612925565b60405180910390fd5b61131b60008383611750565b6001600360008473ffffffffffffffffffffffffffffffffffffffff1673ffffffffffffffffffffffffffffffffffffffff168152602001908152602001600020600082825461136b9190612583565b92505081905550816002600083815260200190815260200160002060006101000a81548173ffffffffffffffffffffffffffffffffffffffff021916908373ffffffffffffffffffffffffffffffffffffffff160217905550808273ffffffffffffffffffffffffffffffffffffffff16600073ffffffffffffffffffffffffffffffffffffffff167fddf252ad1be2c89b69c2b068fc378daa952ba7f163c4a11628f55a4df523b3ef60405160405180910390a461142c60008383611755565b5050565b611439826116e4565b611478576040517f08c379a000000000000000000000000000000000000000000000000000000000815260040161146f906129b7565b60405180910390fd5b806006600084815260200190815260200160002090816114989190612b79565b505050565b8173ffffffffffffffffffffffffffffffffffffffff168373ffffffffffffffffffffffffffffffffffffffff160361150b576040517f08c379a000000000000000000000000000000000000000000000000000000000815260040161150290612c97565b60405180910390fd5b80600560008573ffffffffffffffffffffffffffffffffffffffff1673ffffffffffffffffffffffffffffffffffffffff16815260200190815260200160002060008473ffffffffffffffffffffffffffffffffffffffff1673ffffffffffffffffffffffffffffffffffffffff16815260200190815260200160002060006101000a81548160ff0219169083151502179055508173ffffffffffffffffffffffffffffffffffffffff168373ffffffffffffffffffffffffffffffffffffffff167f17307eab39ab6107e8899845ad3d59bd9653f200f220920489ca2b5937696c31836040516115fc9190611b18565b60405180910390a3505050565b611614848484610ff1565b6116208484848461175a565b61165f576040517f08c379a000000000000000000000000000000000000000000000000000000000815260040161165690612d29565b60405180910390fd5b50505050565b606060405180602001604052806000815250905090565b606061168782610e50565b6000611691611665565b905060008151116116b157604051806020016040528060008152506116dc565b806116bb846118e1565b6040516020016116cc9291906126f1565b6040516020818303038152906040525b915050919050565b60008073ffffffffffffffffffffffffffffffffffffffff166002600084815260200190815260200160002060009054906101000a900473ffffffffffffffffffffffffffffffffffffffff1673ffffffffffffffffffffffffffffffffffffffff1614159050919050565b505050565b505050565b600061177b8473ffffffffffffffffffffffffffffffffffffffff16611a41565b156118d4578373ffffffffffffffffffffffffffffffffffffffff1663150b7a026117a4610e9b565b8786866040518563ffffffff1660e01b81526004016117c69493929190612d9e565b6020604051808303816000875af192505050801561180257506040513d601f19601f820116820180604052508101906117ff9190612dff565b60015b611884573d8060008114611832576040519150601f19603f3d011682016040523d82523d6000602084013e611837565b606091505b50600081510361187c576040517f08c379a000000000000000000000000000000000000000000000000000000000815260040161187390612d29565b60405180910390fd5b805181602001fd5b63150b7a0260e01b7bffffffffffffffffffffffffffffffffffffffffffffffffffffffff1916817bffffffffffffffffffffffffffffffffffffffffffffffffffffffff1916149150506118d9565b600190505b949350505050565b606060008203611928576040518060400160405280600181526020017f30000000000000000000000000000000000000000000000000000000000000008152509050611a3c565b600082905060005b6000821461195a57808061194390612e2c565b915050600a826119539190612ea3565b9150611930565b60008167ffffffffffffffff81111561197657611975611d97565b5b6040519080825280601f01601f1916602001820160405280156119a85781602001600182028036833780820191505090505b5090505b60008514611a35576001826119c19190612839565b9150600a856119d09190612ed4565b60306119dc9190612583565b60f81b8183815181106119f2576119f1612f05565b5b60200101907effffffffffffffffffffffffffffffffffffffffffffffffffffffffffffff1916908160001a905350600a85611a2e9190612ea3565b94506119ac565b8093505050505b919050565b6000808273ffffffffffffffffffffffffffffffffffffffff163b119050919050565b6000604051905090565b600080fd5b600080fd5b60007fffffffff0000000000000000000000000000000000000000000000000000000082169050919050565b611aad81611a78565b8114611ab857600080fd5b50565b600081359050611aca81611aa4565b92915050565b600060208284031215611ae657611ae5611a6e565b5b6000611af484828501611abb565b91505092915050565b60008115159050919050565b611b1281611afd565b82525050565b6000602082019050611b2d6000830184611b09565b92915050565b600081519050919050565b600082825260208201905092915050565b60005b83811015611b6d578082015181840152602081019050611b52565b60008484015250505050565b6000601f19601f8301169050919050565b6000611b9582611b33565b611b9f8185611b3e565b9350611baf818560208601611b4f565b611bb881611b79565b840191505092915050565b60006020820190508181036000830152611bdd8184611b8a565b905092915050565b6000819050919050565b611bf881611be5565b8114611c0357600080fd5b50565b600081359050611c1581611bef565b92915050565b600060208284031215611c3157611c30611a6e565b5b6000611c3f84828501611c06565b91505092915050565b600073ffffffffffffffffffffffffffffffffffffffff82169050919050565b6000611c7382611c48565b9050919050565b611c8381611c68565b82525050565b6000602082019050611c9e6000830184611c7a565b92915050565b611cad81611c68565b8114611cb857600080fd5b50565b600081359050611cca81611ca4565b92915050565b60008060408385031215611ce757611ce6611a6e565b5b6000611cf585828601611cbb565b9250506020611d0685828601611c06565b9150509250929050565b600080600060608486031215611d2957611d28611a6e565b5b6000611d3786828701611cbb565b9350506020611d4886828701611cbb565b9250506040611d5986828701611c06565b9150509250925092565b611d6c81611be5565b82525050565b6000602082019050611d876000830184611d63565b92915050565b600080fd5b600080fd5b7f4e487b7100000000000000000000000000000000000000000000000000000000600052604160045260246000fd5b611dcf82611b79565b810181811067ffffffffffffffff82111715611dee57611ded611d97565b5b80604052505050565b6000611e01611a64565b9050611e0d8282611dc6565b919050565b600067ffffffffffffffff821115611e2d57611e2c611d97565b5b611e3682611b79565b9050602081019050919050565b82818337600083830152505050565b6000611e65611e6084611e12565b611df7565b905082815260208101848484011115611e8157611e80611d92565b5b611e8c848285611e43565b509392505050565b600082601f830112611ea957611ea8611d8d565b5b8135611eb9848260208601611e52565b91505092915050565b600060208284031215611ed857611ed7611a6e565b5b600082013567ffffffffffffffff811115611ef657611ef5611a73565b5b611f0284828501611e94565b91505092915050565b600060208284031215611f2157611f20611a6e565b5b6000611f2f84828501611cbb565b91505092915050565b611f4181611afd565b8114611f4c57600080fd5b50565b600081359050611f5e81611f38565b92915050565b60008060408385031215611f7b57611f7a611a6e565b5b6000611f8985828601611cbb565b9250506020611f9a85828601611f4f565b9150509250929050565b600067ffffffffffffffff821115611fbf57611fbe611d97565b5b611fc882611b79565b9050602081019050919050565b6000611fe8611fe384611fa4565b611df7565b90508281526020810184848401111561200457612003611d92565b5b61200f848285611e43565b509392505050565b600082601f83011261202c5761202b611d8d565b5b813561203c848260208601611fd5565b91505092915050565b6000806000806080858703121561205f5761205e611a6e565b5b600061206d87828801611cbb565b945050602061207e87828801611cbb565b935050604061208f87828801611c06565b925050606085013567ffffffffffffffff8111156120b0576120af611a73565b5b6120bc87828801612017565b91505092959194509250565b600080604083850312156120df576120de611a6e565b5b60006120ed85828601611cbb565b92505060206120fe85828601611cbb565b9150509250929050565b6000819050919050565b600061212d61212861212384611c48565b612108565b611c48565b9050919050565b600061213f82612112565b9050919050565b600061215182612134565b9050919050565b61216181612146565b82525050565b600060208201905061217c6000830184612158565b92915050565b7f4e487b7100000000000000000000000000000000000000000000000000000000600052602260045260246000fd5b600060028204905060018216806121c957607f821691505b6020821081036121dc576121db612182565b5b50919050565b7f4552433732313a20617070726f76616c20746f2063757272656e74206f776e6560008201527f7200000000000000000000000000000000000000000000000000000000000000602082015250565b600061223e602183611b3e565b9150612249826121e2565b604082019050919050565b6000602082019050818103600083015261226d81612231565b9050919050565b7f4552433732313a20617070726f76652063616c6c6572206973206e6f7420746f60008201527f6b656e206f776e6572206e6f7220617070726f76656420666f7220616c6c0000602082015250565b60006122d0603e83611b3e565b91506122db82612274565b604082019050919050565b600060208201905081810360008301526122ff816122c3565b9050919050565b7f4552433732313a2063616c6c6572206973206e6f7420746f6b656e206f776e6560008201527f72206e6f7220617070726f766564000000000000000000000000000000000000602082015250565b6000612362602e83611b3e565b915061236d82612306565b604082019050919050565b6000602082019050818103600083015261239181612355565b9050919050565b7f4578636565647320746f6b656e20737570706c79000000000000000000000000600082015250565b60006123ce601483611b3e565b91506123d982612398565b602082019050919050565b600060208201905081810360008301526123fd816123c1565b9050919050565b60008151905061241381611bef565b92915050565b60006020828403121561242f5761242e611a6e565b5b600061243d84828501612404565b91505092915050565b7f746f6b656e2062616c616e6365206c6f77000000000000000000000000000000600082015250565b600061247c601183611b3e565b915061248782612446565b602082019050919050565b600060208201905081810360008301526124ab8161246f565b9050919050565b60006040820190506124c76000830185611c7a565b6124d46020830184611d63565b9392505050565b6000815190506124ea81611f38565b92915050565b60006020828403121561250657612505611a6e565b5b6000612514848285016124db565b91505092915050565b60006060820190506125326000830186611c7a565b61253f6020830185611c7a565b61254c6040830184611d63565b949350505050565b7f4e487b7100000000000000000000000000000000000000000000000000000000600052601160045260246000fd5b600061258e82611be5565b915061259983611be5565b92508282019050808211156125b1576125b0612554565b5b92915050565b7f4552433732313a20696e76616c696420746f6b656e2049440000000000000000600082015250565b60006125ed601883611b3e565b91506125f8826125b7565b602082019050919050565b6000602082019050818103600083015261261c816125e0565b9050919050565b7f4552433732313a2061646472657373207a65726f206973206e6f74206120766160008201527f6c6964206f776e65720000000000000000000000000000000000000000000000602082015250565b600061267f602983611b3e565b915061268a82612623565b604082019050919050565b600060208201905081810360008301526126ae81612672565b9050919050565b600081905092915050565b60006126cb82611b33565b6126d581856126b5565b93506126e5818560208601611b4f565b80840191505092915050565b60006126fd82856126c0565b915061270982846126c0565b91508190509392505050565b7f4552433732313a207472616e736665722066726f6d20696e636f72726563742060008201527f6f776e6572000000000000000000000000000000000000000000000000000000602082015250565b6000612771602583611b3e565b915061277c82612715565b604082019050919050565b600060208201905081810360008301526127a081612764565b9050919050565b7f4552433732313a207472616e7366657220746f20746865207a65726f2061646460008201527f7265737300000000000000000000000000000000000000000000000000000000602082015250565b6000612803602483611b3e565b915061280e826127a7565b604082019050919050565b60006020820190508181036000830152612832816127f6565b9050919050565b600061284482611be5565b915061284f83611be5565b925082820390508181111561286757612866612554565b5b92915050565b7f4552433732313a206d696e7420746f20746865207a65726f2061646472657373600082015250565b60006128a3602083611b3e565b91506128ae8261286d565b602082019050919050565b600060208201905081810360008301526128d281612896565b9050919050565b7f4552433732313a20746f6b656e20616c7265616479206d696e74656400000000600082015250565b600061290f601c83611b3e565b915061291a826128d9565b602082019050919050565b6000602082019050818103600083015261293e81612902565b9050919050565b7f45524337323155524953746f726167653a2055524920736574206f66206e6f6e60008201527f6578697374656e7420746f6b656e000000000000000000000000000000000000602082015250565b60006129a1602e83611b3e565b91506129ac82612945565b604082019050919050565b600060208201905081810360008301526129d081612994565b9050919050565b60008190508160005260206000209050919050565b60006020601f8301049050919050565b600082821b905092915050565b600060088302612a397fffffffffffffffffffffffffffffffffffffffffffffffffffffffffffffffff826129fc565b612a4386836129fc565b95508019841693508086168417925050509392505050565b6000612a76612a71612a6c84611be5565b612108565b611be5565b9050919050565b6000819050919050565b612a9083612a5b565b612aa4612a9c82612a7d565b848454612a09565b825550505050565b600090565b612ab9612aac565b612ac4818484612a87565b505050565b5b81811015612ae857612add600082612ab1565b600181019050612aca565b5050565b601f821115612b2d57612afe816129d7565b612b07846129ec565b81016020851015612b16578190505b612b2a612b22856129ec565b830182612ac9565b50505b505050565b600082821c905092915050565b6000612b5060001984600802612b32565b1980831691505092915050565b6000612b698383612b3f565b9150826002028217905092915050565b612b8282611b33565b67ffffffffffffffff811115612b9b57612b9a611d97565b5b612ba582546121b1565b612bb0828285612aec565b600060209050601f831160018114612be35760008415612bd1578287015190505b612bdb8582612b5d565b865550612c43565b601f198416612bf1866129d7565b60005b82811015612c1957848901518255600182019150602085019450602081019050612bf4565b86831015612c365784890151612c32601f891682612b3f565b8355505b6001600288020188555050505b505050505050565b7f4552433732313a20617070726f766520746f2063616c6c657200000000000000600082015250565b6000612c81601983611b3e565b9150612c8c82612c4b565b602082019050919050565b60006020820190508181036000830152612cb081612c74565b9050919050565b7f4552433732313a207472616e7366657220746f206e6f6e20455243373231526560008201527f63656976657220696d706c656d656e7465720000000000000000000000000000602082015250565b6000612d13603283611b3e565b9150612d1e82612cb7565b604082019050919050565b60006020820190508181036000830152612d4281612d06565b9050919050565b600081519050919050565b600082825260208201905092915050565b6000612d7082612d49565b612d7a8185612d54565b9350612d8a818560208601611b4f565b612d9381611b79565b840191505092915050565b6000608082019050612db36000830187611c7a565b612dc06020830186611c7a565b612dcd6040830185611d63565b8181036060830152612ddf8184612d65565b905095945050505050565b600081519050612df981611aa4565b92915050565b600060208284031215612e1557612e14611a6e565b5b6000612e2384828501612dea565b91505092915050565b6000612e3782611be5565b91507fffffffffffffffffffffffffffffffffffffffffffffffffffffffffffffffff8203612e6957612e68612554565b5b600182019050919050565b7f4e487b7100000000000000000000000000000000000000000000000000000000600052601260045260246000fd5b6000612eae82611be5565b9150612eb983611be5565b925082612ec957612ec8612e74565b5b828204905092915050565b6000612edf82611be5565b9150612eea83611be5565b925082612efa57612ef9612e74565b5b828206905092915050565b7f4e487b7100000000000000000000000000000000000000000000000000000000600052603260045260246000fdfea2646970667358221220fdeb9ea7390083e3b79c2215fbc7148c18c6c5fa52f3fb6e5ee044bb35899bf164736f6c63430008110033",
  "linkReferences": {},
  "deployedLinkReferences": {}
}